:100CDD002141454B310042615149460000217F01C0
:100CED0000003E4149493A003E4141413E0000006D
:100CFD005F000000E742FFFF42E7E742FFE7FF42E8
:010D0D00E7FE
:0B0E6300010E3D020A3880020C000066
:0B0E6F00EF1FAC0670011E4C70F62255
:050E8500C2A3D2A4226B
:050E8A00D2A3C2A42266
:070E1F00120E85EE44B8FF3E
:0B0E26008FB0C2A0C2A1D2A2C2A222C3
:080E0C008D828C83120800FFA7
:0B0E14008FB0D2A0C2A1D2A2C2A222C5
:100D0E00E4FE120E1F7F40120E26E4FDE4FF120ECB
:100D1E00140DBD40F7120E8A120E227F40120E26BF
:0F0D2E00E4FDE4FF120E140DBD40F70EBE08D316
:010D3D002293
:100E4300120E857F3F120E26120E8A120E26020DF7
:010E53000E90
:060D96008B288A29892A3E
:100D9C00E4FDFCAB28AA29A92A120E0C0DBD0001FA
:0C0DAC000CED64044C70ECE4FF020E142B
:0C0A66007BFF851922851A23AD18AC1700
:0A0A72008B1D8A1E891F8C208D2128
:100A7C00E4FDFCE5212DFFE5203CFEC3EF9440EEA8
:100A8C00648094805010120E85E52344B8FF120E3A
:100A9C0026E5212D8010120E8AE52344B8FF120E94
:100AAC0026E5212D24C04440FF120E26AB1DAA1EA4
:100ABC00A91F120E0C0DBD00010CED64064C70B399
:010ACC002207
:0F0B30007FA07E86120E6FAD1AAC19AF18AE17EC
:040B3F00AB07AA0650
:100B4300900000EB2582FFEA3583FEC3EF9440EE6D
:100B5300648094805010120E85ED44B8FF120E2667
:100B6300AF82EB2F8010120E8AED44B8FF120E26CF
:100B7300AF82EB2F24C04440FF120E26E4FF120E77
:0A0B830014A3E5826406458370B9EF
:010B8D002245
:1008B80075170075183D751900751A037A0C79DDDE
:1008C800120A66120B307A0C79E3120A66120B30A0
:1008D8007BFF7A0C79E9120A68120B30C374809492
:1008E80012FFE49400FE7C007D0212082D8E1B8FFF
:1008F8001C7BFF7A0C79EF851922851A23AD1CAC75
:100908001B120A727BFF7A0C79F5E51C2406FDE4BC
:10091800351BFC851922851A23120A727BFF7A0C73
:1009280079FBE51C240CFDE4351BFC851922851A8E
:1009380023120A727FA07E86120E6FAD1AAC19AF11
:100948001CAE1B120B3FE51C2406FFE4351BFEAD55
:100958001AAC19120B3FE51C240CFFE4351BFEAD45
:060968001AAC19020B3F5E
:020C2500AE0718
:100C2700ED2430FCEDC394405006120E1FED8009F1
:100C3700120E8A120E22ED24C04440FF120E267FA8
:100C4700FF120E14ECC394405006120E1FEC8009DD
:100C5700120E8A120E22EC24C04440FF120E267F89
:040C6700FF120E1456
:010C6B002266
:020BDB00AD0764
:020BDD00E4FC36
:100BDF00ED2CF517C3944050047F0080027F01E590
:100BEF0017C394405004AB178005E51724C0FBAE24
:100BFF0003EF7005120E858003120E8A7FBF120E4F
:100C0F0026EE4440FF120E26EC900D0193FF120EBC
:010C1F0014C0
:040C20000CBC06BB47
:010C240022AD
:0E0E54007F27E4FE740F2EF8A6070EBE08F6E8
:010E6200226D
:100C6C007F07740E2FF8E6FE740F2FF8A606DFF23E
:100C7C00850F17120B8E7C007D0212082DED4C6037
:100C8C000BE517C3944F500405178009E517D3944F
:080C9C00014002151785170F36
:010CA400222D
:100E3100E4FBAF03740F2BF8E6FD120C250BBB0886
:010E4100F1BF
:010E4200228D
:100DD700209009E50EC394795002050E209109E58C
:0D0DE7000ED394004002150EAF0E020BDB80
:100DF400AF16EF2430FEE50EC39F4008E50E240530
:070E0400D39E4002D322C37C
:010E0B0022C4
:0A0E7A007F01780974FFF608DFFC21
:010E8400224B
:0C0CA500E4F51774092517F8E6F4702236
:100CB100850F18120B8E7C007D2512082DE5182456
:100CC100022DFF74082517F8A60774092517F8E403
:020CD100F62209
:090CD3000517E517C3940140CC9C
:010CDC0022F5
:100D3E00E4FF74092FF8E6C39408500D0674092FCA
:100D4E00F8E6C39408400276FF0FBF01E5120B8E42
:0E0D5E007C007D0512082DED4C7003120CA5D3
:010D6C002264
:0D09FA00E4FE74092EF8E6FFC3940850587F
:0B0A07008F1774082EF8E6F518E4FDC8
:100A1200E5182DF519C3944050047F0080027F0130
:100A22008F1AE519C394405004AF198005E51924C3
:100A3200C0FF8F1BE51A7005120E858003120E8A05
:100A4200E51744B8FF120E26E51B4440FF120E269E
:090A5200ED900D0793FF120E1444
:040A5B000DBD07B313
:060A5F000EEE6401709729
:010A6500226E
:100D6D00E4FF74092FF8E6B4071974082FF8E6FEAE
:100D7D00E50E2405C39E400BEE2406FEE50ED39E24
:080D8D005001220FBF01DBC37E
:010D9500223B
:100DB800120D0E7F607EEA120E6F750E3D120E54F4
:0F0DC800120E7A750A38750B80E4F50CF50D22C2
:100ACD00120E437590FF1208B8120E54120E7A12C0
:100ADD000D0E120C6C120D3E120E311209FA120D82
:100AED00D7120DF44005120D6D5003120DB8AF0B5A
:100AFD00AE0A120E6F050DE50D7002050CC3946460
:100B0D00E50C940040C9E50B9420E50A944E40BFD6
:100B1D007478250BF50B74EC350AF50AE4F50CF534
:030B2D000D80AC8C
:0300000002096E84
:0C096E00787FE4F6D8FD75812A0209B5F7
:10080000BB010CE58229F582E5833AF583E02250AD
:1008100006E92582F8E622BBFE06E92582F8E222F7
:0D082000E58229F582E5833AF583E4932211
:10082D00C2D5EC30E709B2D5E4C39DFDE49CFCEEE6
:10083D0030E715B2D5E4C39FFFE49EFE120863C3F3
:10084D00E49DFDE49CFC800312086330D507C3E4EE
:06085D009FFFE49EFE2255
:100B8E00AC24AD25AE26AF277810EC4D4E4F700439
:100B9E007CA57DA5C3EC13FCED13FDEE13FEEF1348
:100BAE00FF5010EC64CCFCED644CFDEE644EFEEF99
:100BBE0064CEFFD8DF8C248D258E268F27EE547FB2
:0D0BCE00FE228E248F2574A5F526F5272222
:10097A00020ACDE493A3F8E493A34003F68001F2BC
:10098A0008DFF48029E493A3F85407240CC8C3337E
:10099A00C4540F4420C8834004F456800146F6DF4D
:1009AA00E4800B0102040810204080900E63E47E6C
:1009BA00019360BCA3FF543F30E509541FFEE49342
:1009CA00A360010ECF54C025E060A840B8E493A309
:1009DA00FAE493A3F8E493A3C8C582C8CAC583CA34
:1009EA00F0A3C8C582C8CAC583CADFE9DEE780BEEC
:010E6E000083
:10086300BC000BBE0029EF8DF084FFADF022E4CC79
:10087300F875F008EF2FFFEE33FEEC33FCEE9DEC42
:10088300984005FCEE9DFE0FD5F0E9E4CEFD22ED88
:10089300F8F5F0EE8420D21CFEADF075F008EF2FD2
:1008A300FFED33FD4007985006D5F0F222C398FDC3
:0508B3000FD5F0EA2260
:00000001FF
